S01C0000696E746572727570742B6C65642B627574746F6E2E73726563F4
S11300000C9472000C948F010C947C000C947C0072
S11300100C947C000C947C000C947C000C947C006C
S11300200C947C000C947C000C947C000C947C005C
S11300300C947C000C947C000C947C000C947C004C
S11300400C947C000C947C000C947C000C947C003C
S11300500C947C008A00A700C400E100FD00FD00B0
S1130060FD00FD00FD00FD00FD00FD00FD00FD00A4
S1130070FD00FD00FD00FD00FD00FD00FD00FD0094
S1130080FD00FD00FD00FD00FD00FD00FD00FD0084
S1130090FD00FD008A00A700C400E1000A01270159
S11300A0440161017D017D017D017D017D017D01B1
S11300B07D017D017D017D017D017D017D017D014C
S11300C07D017D017D017D017D017D017D017D013C
S11300D07D017D017D017D017D017D010A012701F5
S11300E04401610111241FBECFE5D8E0DEBFCDBFBE
S11300F00E947E010C9401020C94000090E0FC012B
S1130100E154F109E432F10508F077C0E65DFF4FF0
S11301100C94FB01413069F42AB381E090E0AC0116
S113012002C0440F551F6A95E2F7BA01622B6ABBFD
S113013008952AB381E090E0AC0102C0440F551F3A
S11301406A95E2F7BA01609562236ABB089541306B
S113015069F427B381E090E0AC0102C0440F551F5D
S11301606A95E2F7BA01622B67BB089527B381E071
S113017090E0AC0102C0440F551F6A95E2F7BA0142
S11301806095622367BB0895413069F424B381E02C
S113019090E0AC0102C0440F551F6A95E2F7BA0122
S11301A0622B64BB089524B381E090E0AC0102C0EB
S11301B0440F551F6A95E2F7BA016095622364BB48
S11301C00895413069F421B381E090E0AC0102C0AC
S11301D0440F551F6A95E2F7BA01622B61BB08957B
S11301E021B381E090E0AC0102C0440F551F6A9531
S11301F0E2F7BA016095622361BB089590E0FC01C7
S1130200E154F109E432F10508F077C0E25BFF4FF5
S11302100C94FB01413069F42BB381E090E0AC0114
S113022002C0440F551F6A95E2F7BA01622B6BBBFB
S113023008952BB381E090E0AC0102C0440F551F38
S11302406A95E2F7BA01609562236BBB0895413069
S113025069F428B381E090E0AC0102C0440F551F5B
S11302606A95E2F7BA01622B68BB089528B381E06E
S113027090E0AC0102C0440F551F6A95E2F7BA0141
S11302806095622368BB0895413069F425B381E029
S113029090E0AC0102C0440F551F6A95E2F7BA0121
S11302A0622B65BB089525B381E090E0AC0102C0E8
S11302B0440F551F6A95E2F7BA016095622365BB46
S11302C00895413069F422B381E090E0AC0102C0AA
S11302D0440F551F6A95E2F7BA01622B62BB089579
S11302E022B381E090E0AC0102C0440F551F6A952F
S11302F0E2F7BA016095622362BB089560E083E48B
S11303000E94EB0162E084E40E94F70183E090E044
S11303100E94BE0160E083E40E94F301FBCF1F92C0
S11303200F920FB60F9211242F933F934F935F9325
S11303306F937F938F939F93AF93BF93EF93FF93A9
S113034060E083E40E94EF012FEF89E698E12150F9
S113035080409040E1F700C00000FF91EF91BF9111
S1130360AF919F918F917F916F915F914F913F9149
S11303702F910F900FBE0F901F901895CF93C82FF9
S113038078948BB780648BBF40E062E084E40E9481
S11303907E00C13061F028F0C23079F0C33099F0AA
S11303A018C085B78E7F85BF85B78D7F85BF85B71C
S11303B0816085BF85B78D7F85BF85B78E7F85BFFB
S11303C085B7826085BF85B7816085BF85B7826048
S11303D085BFCF91089541E00E947E00089541E0D9
S11303E00E94FE00089540E00E94FE00089540E04F
S11303F00E947E000895EE0FFF1F0590F491E02DFA
S10904000994F894FFCFFB
S9030000FC
