:100000000C942A000C9434000C9434000C943400AA
:100010000C9434000C9434000C9434000C94340090
:100020000C9434000C9434000C9434000C94340080
:100030000C9434000C9434000C9434000C94340070
:100040000C9434000C9434000C9434000C94340060
:100050000C94340011241FBECFE5D8E0DEBFCDBF25
:100060000E9436000C9495000C94000060E875E244
:1000700080E090E00E94490081E40E946F002FEF31
:1000800089E698E1215080409040E1F700C00000EF
:10009000F3CFDC01CB01880F991FAA1FBB1F880F6C
:1000A000991FAA1FBB1F9C01AD01220F331F441FC4
:1000B000551F220F331F441F551F60E072E18AE76E
:1000C00090E00E9473002150310930BD29B9539A44
:1000D000549A86E880BD8AB18AB9599808955D9B83
:1000E000FECF8CB90895A1E21A2EAA1BBB1BFD01FD
:1000F0000DC0AA1FBB1FEE1FFF1FA217B307E40707
:10010000F50720F0A21BB30BE40BF50B661F771F5E
:10011000881F991F1A9469F760957095809590953E
:0E0120009B01AC01BD01CF010895F894FFCF03
:00000001FF
