S0130000646F75626C655F375365672E73726563E1
S11300000C947C000C9486000C9486000C9486005E
S11300100C9486000C9486000C9486000C94860044
S11300200C9486000C9486000C9486000C94860034
S11300300C9486000C9486000C9486000C94860024
S11300400C9486000C9486000C9486000C94860014
S11300500C94860093009500970099009A009A00EA
S11300609A009A009A009A009A009A009A009A00BC
S11300709A009A009A009A009A009A009A009A00AC
S11300809A009A009A009A009A009A009A009A009C
S11300909A009A009300950097009900A600A80082
S11300A0AA00AC00AD00AD00AD00AD00AD00AD00E8
S11300B0AD00AD00AD00AD00AD00AD00AD00AD00D4
S11300C0AD00AD00AD00AD00AD00AD00AD00AD00C4
S11300D0AD00AD00AD00AD00AD00AD00A600A800C0
S11300E0AA00AC00F600FA00FE00020106010A01B3
S11300F00E01120116011A0111241FBECFE5D8E02A
S1130100DEBFCDBF0E94AE000C9424010C9400000D
S113011090E0FC01E154F109E432F10558F4E65DA4
S1130120FF4F0C941E016ABB089567BB089564BB1E
S1130130089561BB089590E0FC01E154F109E432B3
S1130140F10558F4E25BFF4F0C941E016BBB08955C
S113015068BB089565BB089562BB089581E40E945D
S1130160E80084E40E94E800C0E01FEF0DECCA3010
S113017048F46C2F81E40E94EC0060E084E40E9467
S1130180EC001BC086EF8C0F8A35B0F4C09FD12DD4
S11301901124D695D695D6958D2F880F982F990F23
S11301A0990F890F6C2F681B81E40E94EC006D2F5E
S11301B084E40E94EC0001C0C12FCF5F2FEF89E6D9
S11301C098E1215080409040E1F700C00000CFCF7B
S11301D06FEF0E9488000895462F50E04A30510581
S11301E060F5FA01EE58FF4F0C941E016FE30E9474
S11301F09B00089566E00E949B0008956BE50E94B1
S11302009B0008956FE40E949B00089566E60E9497
S11302109B0008956DE60E949B0008956DE70E947F
S11302209B00089567E40E949B0008956FE70E9475
S11302309B0008956FE60E949B000895EE0FFF1F38
S10F02400590F491E02D0994F894FFCF90
S9030000FC
