:100000000C94BA000C94CF000C94CF000C94CF0049
:100010000C94CF000C94CF000C94CF000C94CF0024
:100020000C94CF000C94CF000C94CF000C94CF0014
:100030000C94CF000C94CF000C94CF000C94CF0004
:100040000C94CF000C94CF000C94CF000C94CF00F4
:100050000C94CF00DD00FA0017013401500150016B
:100060005001500150015001500150015001500108
:1000700050015001500150015001500150015001F8
:1000800050015001500150015001500150015001E8
:1000900050015001DD00FA00170134015D017A01C1
:1000A0009701B401D001D001D001D001D001D0011D
:1000B000D001D001D001D001D001D001D001D001B8
:1000C000D001D001D001D001D001D001D001D001A8
:1000D000D001D001D001D001D001D0015D017A0161
:1000E0009701B401E001E701EE01F50126022602C5
:1000F00026022602260226022602260226022602C0
:1001000026022602260226022602260226022602AF
:10011000260226022602260226022602260226029F
:1001200026022602E001E701EE01F5010B021202B0
:100130001902200226022602260226022602260292
:10014000260226022602260226022602260226026F
:10015000260226022602260226022602260226025F
:100160002602260226022602260226020B0212027E
:100170001902200211241FBECFE5D8E0DEBFCDBF9B
:1001800010E0A0E6B0E0E6E3F7E002C005900D92D3
:10019000A038B107D9F70E9449030C9499030C9435
:1001A000000090E0FC01E154F109E432F10508F0AF
:1001B00077C0E65DFF4F0C949303413069F42AB396
:1001C00081E090E0AC0102C0440F551F6A95E2F750
:1001D000BA01622B6ABB08952AB381E090E0AC01BA
:1001E00002C0440F551F6A95E2F7BA016095622379
:1001F0006ABB0895413069F427B381E090E0AC0117
:1002000002C0440F551F6A95E2F7BA01622B67BB23
:10021000089527B381E090E0AC0102C0440F551F60
:100220006A95E2F7BA016095622367BB0895413091
:1002300069F424B381E090E0AC0102C0440F551F83
:100240006A95E2F7BA01622B64BB089524B381E09A
:1002500090E0AC0102C0440F551F6A95E2F7BA0165
:100260006095622364BB0895413069F421B381E055
:1002700090E0AC0102C0440F551F6A95E2F7BA0145
:10028000622B61BB089521B381E090E0AC0102C014
:10029000440F551F6A95E2F7BA016095622361BB6E
:1002A000089590E0FC01E154F109E432F10508F011
:1002B00077C0E25BFF4F0C949303413069F42BB39A
:1002C00081E090E0AC0102C0440F551F6A95E2F74F
:1002D000BA01622B6BBB08952BB381E090E0AC01B7
:1002E00002C0440F551F6A95E2F7BA016095622378
:1002F0006BBB0895413069F428B381E090E0AC0114
:1003000002C0440F551F6A95E2F7BA01622B68BB21
:10031000089528B381E090E0AC0102C0440F551F5E
:100320006A95E2F7BA016095622368BB089541308F
:1003300069F425B381E090E0AC0102C0440F551F81
:100340006A95E2F7BA01622B65BB089525B381E097
:1003500090E0AC0102C0440F551F6A95E2F7BA0164
:100360006095622365BB0895413069F422B381E052
:1003700090E0AC0102C0440F551F6A95E2F7BA0144
:10038000622B62BB089522B381E090E0AC0102C011
:10039000440F551F6A95E2F7BA016095622362BB6C
:1003A0000895411129C06F7090E0FC01E154F109FA
:1003B000E432F10508F04AC0EE58FF4F0C94930365
:1003C0008BB3807F8BBB8BB3682B6BBB089588B3DB
:1003D000807F88BB88B3682B68BB089585B3807F16
:1003E00085BB85B3682B65BB089582B3807F82BBD4
:1003F00082B3682B62BB0895413041F56295607FFE
:1004000090E0FC01E154F109E432F105F8F4EA5618
:10041000FF4F0C9493038BB38F708BBB8BB3682B04
:100420006BBB089588B38F7088BB88B3682B68BB9B
:10043000089585B38F7085BB85B3682B65BB089520
:1004400082B38F7082BB82B3682B62BB089541E098
:1004500050E060E070E083E490E00E9451018FE999
:100460009FE00197F1F700C0000040E050E060E03D
:1004700070E083E490E00E9451018FE99FE00197D2
:10048000F1F700C000000895CF93C82F682F629540
:100490006F7070E041E050E083E490E00E94D10191
:1004A00040E050E062E070E083E490E00E9451019F
:1004B0000E9427026C2F70E041E050E083E490E05E
:1004C0000E94D10140E050E062E070E083E490E0FF
:1004D0000E9451010E9427028FEC97E00197F1F7EB
:1004E00000C00000CF9108952FE788E391E02150EC
:1004F00080409040E1F700C0000041E050E064E03F
:1005000070E083E490E00E94D10041E050E065E0BB
:1005100070E083E490E00E94D10041E050E066E0AA
:1005200070E083E490E00E94D10041E050E067E099
:1005300070E083E490E00E94D10041E050E060E090
:1005400070E083E490E00E94D10041E050E062E07E
:1005500070E083E490E00E94D10041E050E061E06F
:1005600070E083E490E00E94D10040E050E061E060
:1005700070E083E490E00E94510182E00E94440216
:100580008FE19EE40197F1F700C0000088E20E942D
:1005900044028FEC97E00197F1F700C000008FE074
:1005A0000E9444028FEC97E00197F1F700C0000031
:1005B00081E00E9444028FE19EE40197F1F700C0C0
:1005C000000086E00E9444028FEC97E00197F1F76B
:1005D00000C000000895CF93C82F682F62956F70F8
:1005E00070E041E050E083E490E00E94D10141E0FE
:1005F00050E062E070E083E490E00E9451010E94CC
:1006000027026C2F70E041E050E083E490E00E940C
:10061000D10141E050E062E070E083E490E00E94AC
:1006200051010E9427028FEC97E00197F1F700C07B
:100630000000CF910895CF93DF93EC018881882348
:1006400031F021960E94EB0289918111FBCFDF915D
:10065000CF9108959FEF980F923070F49FEF960F0F
:10066000903160F4813019F42FE7260F08C08230F2
:1006700031F42FEB260F03C020E801C020E8822FC1
:100680000E9444028FEC97E00197F1F700C0000050
:1006900008950E9482030E947402C0E08C2F0E9481
:1006A0008E03C82F813029F480E690E00E941B035E
:1006B000F5CF823029F486E690E00E941B03EECF4E
:1006C000833029F48EE690E00E941B03E7CF84304C
:1006D00029F484E790E00E941B03E0CF853029F4E1
:1006E0008AE790E00E941B03D9CF863021F480E294
:1006F0000E94EB02D3CF873089F661E082E00E944E
:100700002A03CCCF6E9A41E066E082E40E94D100D9
:1007100040E065E082E40E94D10008958FB9779BA4
:10072000FECF8FB10895EE0FFF1F0590F491E02DDD
:060730000994F894FFCFCC
:10073600597573756600596F7573736566005A6FE0
:100746007A7A610047616C616C0053616B720000DC
:00000001FF
