S010000041444320546573742E737265638C
S11300000C947A000C9484000C9484000C94840066
S11300100C9484000C9484000C9484000C9484004C
S11300200C9484000C9484000C9484000C9484003C
S11300300C9484000C9484000C9484000C9484002C
S11300400C9484000C9484000C9484000C9484001C
S11300500C948400E500E900ED00F100F500F900DE
S1130060FD00010111012E014B016801840184018D
S11300708401840184018401840184018401840154
S11300808401840184018401840184018401840144
S11300908401840184018401840184018401840134
S11300A08401840111012E014B0168019101AE010B
S11300B0CB01E80104020402040204020402040263
S11300C004020402040204020402040204020402FC
S11300D004020402040204020402040204020402EC
S11300E00402040204020402040204029101AE01A7
S11300F0CB01E80111241FBECFE5D8E0DEBFCDBFA0
S11301000E9486000C940F020C94000060E084E4CA
S11301100E94050261E084E40E94050262E084E436
S11301200E94050263E084E40E94050264E084E422
S11301300E94050265E084E40E94050266E084E40E
S11301400E94050267E084E40E94050241E066E043
S113015083E40E94050141E067E083E40E94050115
S11301600E94CE0082E00E94DC000E94D40096959A
S113017087959695879582BB0E94D40081FB44277E
S113018040F967E083E40E9485010E94D400482F6F
S1130190417066E083E40E948501E7CF3E9A379A76
S11301A03098319A329A0895369A86B1349A84B145
S11301B025B190E0922B089590E08830910520F5C8
S11301C0FC01E65DFF4F0C940902389839983A987F
S11301D00895389A39983A9808953898399A3A98F7
S11301E00895389A399A3A980895389839983A9AE5
S11301F00895389A39983A9A08953898399A3A9AD3
S11302000895389A399A3A9A089590E0FC01E15495
S1130210F109E432F10508F077C0EE5CFF4F0C946D
S11302200902413069F42AB381E090E0AC0102C0D4
S1130230440F551F6A95E2F7BA01622B6ABB089511
S11302402AB381E090E0AC0102C0440F551F6A95C7
S1130250E2F7BA01609562236ABB0895413069F4FC
S113026027B381E090E0AC0102C0440F551F6A95AA
S1130270E2F7BA01622B67BB089527B381E090E0EF
S1130280AC0102C0440F551F6A95E2F7BA016095AC
S1130290622367BB0895413069F424B381E090E0A0
S11302A0AC0102C0440F551F6A95E2F7BA01622BF4
S11302B064BB089524B381E090E0AC0102C0440F14
S11302C0551F6A95E2F7BA016095622364BB0895ED
S11302D0413069F421B381E090E0AC0102C0440FE5
S11302E0551F6A95E2F7BA01622B61BB089521B3E9
S11302F081E090E0AC0102C0440F551F6A95E2F71B
S1130300BA016095622361BB089590E0FC01E15459
S1130310F109E432F10508F077C0EA5AFF4F0C9472
S11303200902413069F42BB381E090E0AC0102C0D2
S1130330440F551F6A95E2F7BA01622B6BBB08950F
S11303402BB381E090E0AC0102C0440F551F6A95C5
S1130350E2F7BA01609562236BBB0895413069F4FA
S113036028B381E090E0AC0102C0440F551F6A95A8
S1130370E2F7BA01622B68BB089528B381E090E0EC
S1130380AC0102C0440F551F6A95E2F7BA016095AB
S1130390622368BB0895413069F425B381E090E09D
S11303A0AC0102C0440F551F6A95E2F7BA01622BF3
S11303B065BB089525B381E090E0AC0102C0440F11
S11303C0551F6A95E2F7BA016095622365BB0895EB
S11303D0413069F422B381E090E0AC0102C0440FE3
S11303E0551F6A95E2F7BA01622B62BB089522B3E6
S11303F081E090E0AC0102C0440F551F6A95E2F71A
S1130400BA016095622362BB089541E00E94050130
S11304100895EE0FFF1F0590F491E02D0994F894D0
S1050420FFCF08
S9030000FC
