:100000000C9472000C9484000C9484000C94840072
:100010000C9484000C9484000C9484000C94840050
:100020000C9484000C9484000C94D5010C948400EE
:100030000C9484000C9484000C9484000C94840030
:100040000C9484000C9484000C9484000C94840020
:100050000C9484009200B100D000EF000D010D015E
:100060000D010D010D010D010D010D010D010D0120
:100070000D010D010D010D010D010D010D010D0110
:100080000D010D010D010D010D010D010D010D0100
:100090000D010D019200B100D000EF001901260101
:1000A000330140014C014C014C014C014C014C010D
:1000B0004C014C014C014C014C014C014C014C01D8
:1000C0004C014C014C014C014C014C014C014C01C8
:1000D0004C014C014C014C014C014C011901260111
:1000E0003301400111241FBECFE5D8E0DEBFCDBFF4
:1000F00020E0A0E6B0E001C01D92A436B207E1F70F
:100100000E94A0010C94FC010C94000090E0FC0102
:10011000E154F109E432F10508F07FC0E65DFF4FDC
:100120000C94F601413069F42AB381E090E0AC010F
:1001300002C0440F551F6A95E2F7BA01622B6ABBF1
:10014000089541116AC02AB381E090E0AC0102C079
:10015000440F551F6A95E2F7BA01609562236ABBA6
:100160000895413069F427B381E090E0AC0102C00A
:10017000440F551F6A95E2F7BA01622B67BB0895D9
:1001800041114BC027B381E090E0AC0102C0440FA5
:10019000551F6A95E2F7BA016095622367BB08951F
:1001A000413069F424B381E090E0AC0102C0440F17
:1001B000551F6A95E2F7BA01622B64BB089541119D
:1001C0002CC024B381E090E0AC0102C0440F551F65
:1001D0006A95E2F7BA016095622364BB08954130E5
:1001E00069F421B381E090E0AC0102C0440F551FD7
:1001F0006A95E2F7BA01622B61BB089541110DC007
:1002000021B381E090E0AC0102C0440F551F6A9514
:10021000E2F7BA016095622361BB089590E0FC01AA
:10022000E154F109E432F105B8F5E25BFF4F0C94BB
:10023000F6012BB381E090E0AC0102C0440F551FE2
:100240006A95E2F7BA0162276BBB089528B381E093
:1002500090E0AC0102C0440F551F6A95E2F7BA0165
:10026000622768BB089525B381E090E0AC0102C02D
:10027000440F551F6A95E2F7BA01622765BB0895DE
:1002800022B381E090E0AC0102C0440F551F6A9593
:10029000E2F7BA01622762BB089541E00E9486003E
:1002A00008950E940E01089593B79F7B93BF93B763
:1002B000986093BF6034710511F138F461157105D0
:1002C00061F06830710591F035C0611591E07907F2
:1002D000F9F06115744029F12DC093B79E7F93BF4B
:1002E00093B79D7F93BF93B7946093BF93B79E7F5F
:1002F00093BF93B7926093BF93B79B7F93BF93B71E
:10030000916093BF93B7926093BF93B79B7F93BF66
:1003100093B79E7F93BF93B79D7F93BF93B794602E
:1003200093BF93B7916093BF93B79D7F93BF93B7EC
:10033000946093BF8CBF789489B7826089BF089519
:1003400060E074E08EE40E94540160E081E40E9469
:100350004D0161E081E40E944D0162E081E40E9470
:100360004D0180916300843630F060E081E40E94AA
:1003700051011092630080916200883C30F061E08E
:1003800081E40E945101109262008091600090917E
:1003900061008C32914028F362E081E40E945101B7
:1003A0001092610010926000DCCF1F920F920FB686
:1003B0000F9211248F939F93809163008F5F80939E
:1003C0006300809162008F5F809362008091600083
:1003D00090916100019690936100809360009F91DD
:1003E0008F910F900FBE0F901F901895EE0FFF1F6B
:0C03F0000590F491E02D0994F894FFCFE3
:00000001FF
