S00B00006C65642E73726563E4
S11300000C9472000C947C000C947C000C947C0086
S11300100C947C000C947C000C947C000C947C006C
S11300200C947C000C947C000C947C000C947C005C
S11300300C947C000C947C000C947C000C947C004C
S11300400C947C000C947C000C947C000C947C003C
S11300500C947C008A00A700C400E100FD00FD00B0
S1130060FD00FD00FD00FD00FD00FD00FD00FD00A4
S1130070FD00FD00FD00FD00FD00FD00FD00FD0094
S1130080FD00FD00FD00FD00FD00FD00FD00FD0084
S1130090FD00FD008A00A700C400E100090116016B
S11300A0230130013C013C013C013C013C013C0189
S11300B03C013C013C013C013C013C013C013C0154
S11300C03C013C013C013C013C013C013C013C0144
S11300D03C013C013C013C013C013C01090116018D
S11300E02301300111241FBECFE5D8E0DEBFCDBF10
S11300F00E9444010C9460010C94000090E0FC0107
S1130100E154F109E432F10508F077C0E65DFF4FF0
S11301100C945A01413069F42AB381E090E0AC01B7
S113012002C0440F551F6A95E2F7BA01622B6ABBFD
S113013008952AB381E090E0AC0102C0440F551F3A
S11301406A95E2F7BA01609562236ABB089541306B
S113015069F427B381E090E0AC0102C0440F551F5D
S11301606A95E2F7BA01622B67BB089527B381E071
S113017090E0AC0102C0440F551F6A95E2F7BA0142
S11301806095622367BB0895413069F424B381E02C
S113019090E0AC0102C0440F551F6A95E2F7BA0122
S11301A0622B64BB089524B381E090E0AC0102C0EB
S11301B0440F551F6A95E2F7BA016095622364BB48
S11301C00895413069F421B381E090E0AC0102C0AC
S11301D0440F551F6A95E2F7BA01622B61BB08957B
S11301E021B381E090E0AC0102C0440F551F6A9531
S11301F0E2F7BA016095622361BB089590E0FC01C7
S1130200E154F109E432F105B8F5E25BFF4F0C94D7
S11302105A012BB381E090E0AC0102C0440F551F9A
S11302206A95E2F7BA0162276BBB089528B381E0AF
S113023090E0AC0102C0440F551F6A95E2F7BA0181
S1130240622768BB089525B381E090E0AC0102C049
S1130250440F551F6A95E2F7BA01622765BB0895FA
S113026022B381E090E0AC0102C0440F551F6A95AF
S1130270E2F7BA01622762BB089541E00E947E0062
S113028008950E94FE00089560E070E081E490E02B
S11302900E943D0160E070E081E490E00E94410131
S11302A02FEF89E698E1215080409040E1F700C0AB
S11302B00000F0CFEE0FFF1F0590F491E02D09949C
S10702C0F894FFCFDC
S9030000FC
