:100000000C9496000C94A0000C94A0000C94A000FA
:100010000C94A0000C94A0000C94A0000C94A000E0
:100020000C94A0000C94A0000C94A0000C94A000D0
:100030000C94A0000C94A0000C94A0000C94A000C0
:100040000C94A0000C94A0000C94A0000C94A000B0
:100050000C94A000EE000B01280145016101610133
:100060006101610161016101610161016101610180
:100070006101610161016101610161016101610170
:100080006101610161016101610161016101610160
:1000900061016101EE000B01280145017101780148
:1000A0007F018601B701B701B701B701B701B701F9
:1000B000B701B701B701B701B701B701B701B70180
:1000C000B701B701B701B701B701B701B701B70170
:1000D000B701B701B701B701B701B70171017801E5
:1000E0007F0186019C01A301AA01B101B701B701FB
:1000F000B701B701B701B701B701B701B701B70140
:10010000B701B701B701B701B701B701B701B7012F
:10011000B701B701B701B701B701B701B701B7011F
:10012000B701B7019C01A301AA01B10111241FBEAF
:10013000CFE5D8E0DEBFCDBF0E94A2000C94DD0168
:100140000C94000060E081E40E94B80164E081E466
:100150000E94B801C0E01FEF0DECCA3058F440E037
:100160006C2F81E40E94D40141E060E081E40E94B0
:10017000D4011DC086EF8C0F8A35C0F4C09FD12DED
:100180001124D695D695D6958D2F880F982F990F37
:10019000990F890F6C2F681B40E081E40E94D40105
:1001A00041E06D2F81E40E94D40101C0C12FCF5FD7
:1001B0002FEF89E698E1215080409040E1F700C0A0
:1001C0000000CBCF90E0FC01E154F109E432F105ED
:1001D00008F077C0E65DFF4F0C94D701413069F419
:1001E0002AB381E090E0AC0102C0440F551F6A952C
:1001F000E2F7BA01622B6ABB08952AB381E090E06E
:10020000AC0102C0440F551F6A95E2F7BA01609530
:1002100062236ABB0895413069F427B381E090E01E
:10022000AC0102C0440F551F6A95E2F7BA01622B78
:1002300067BB089527B381E090E0AC0102C0440F92
:10024000551F6A95E2F7BA016095622367BB08956E
:10025000413069F424B381E090E0AC0102C0440F66
:10026000551F6A95E2F7BA01622B64BB089524B367
:1002700081E090E0AC0102C0440F551F6A95E2F79F
:10028000BA016095622364BB0895413069F421B3DB
:1002900081E090E0AC0102C0440F551F6A95E2F77F
:1002A000BA01622B61BB089521B381E090E0AC01FB
:1002B00002C0440F551F6A95E2F7BA0160956223A8
:1002C00061BB0895411129C06F7090E0FC01E154B9
:1002D000F109E432F10508F04AC0E25BFF4F0C94EB
:1002E000D7018BB3807F8BBB8BB3682B6BBB08951F
:1002F00088B3807F88BB88B3682B68BB089585B3BB
:10030000807F85BB85B3682B65BB089582B3807FF2
:1003100082BB82B3682B62BB0895413041F5629580
:10032000607F90E0FC01E154F109E432F105F8F45A
:10033000EE58FF4F0C94D7018BB38F708BBB8BB3F0
:10034000682B6BBB089588B38F7088BB88B3682B0C
:1003500068BB089585B38F7085BB85B3682B65BB7B
:10036000089582B38F7082BB82B3682B62BB0895FD
:10037000CF93DF93C82FD62F41E00E94E20061E0C7
:100380006D0F41E08C2F0E94E20062E06D0F41E0B2
:100390008C2F0E94E20063E06D0F41E08C2F0E94E1
:1003A000E200DF91CF9108950E9462010895EE0F5F
:0E03B000FF1F0590F491E02D0994F894FFCF03
:00000001FF
