S01400006164632B6C6D33352B6C63642E737265631E
S11300000C94C2000C94DF000C94DF000C94DF000D
S11300100C94DF000C94DF000C94DF000C94DF00E0
S11300200C94DF000C94DF000C94DF000C94DF00D0
S11300300C94DF000C94DF000C94DF000C94DF00C0
S11300400C94DF000C94DF000C94DF000C94DF00B0
S11300500C94DF0099019D01A101A501A901AD0145
S1130060B101B501C501E201FF011C0238023802E9
S113007038023802380238023802380238023802AC
S1130080380238023802380238023802380238029C
S1130090380238023802380238023802380238028C
S11300A038023802C501E201FF011C024502620266
S11300B07F029C02B802B802B802B802B802B802C1
S11300C0B802B802B802B802B802B802B802B8025C
S11300D0B802B802B802B802B802B802B802B8024C
S11300E0B802B802B802B802B802B8024502620205
S11300F07F029C02C802CF02D602DD020E030E0369
S11301000E030E030E030E030E030E030E030E0363
S11301100E030E030E030E030E030E030E030E0353
S11301200E030E030E030E030E030E030E030E0343
S11301300E030E03C802CF02D602DD02F302FA0256
S1130140010308030E030E030E030E030E030E0336
S11301500E030E030E030E030E030E030E030E0313
S11301600E030E030E030E030E030E030E030E0303
S11301700E030E030E030E030E030E03F302FA0224
S11301800103080311241FBECFE5D8E0DEBFCDBFB5
S113019010E0A0E6B0E0E6E0FBE002C005900D92BE
S11301A0A836B107D9F720E0A8E6B0E001C01D9257
S11301B0AA36B207E1F70E94E1000C9481050C9481
S11301C000000E945C030E94810180E690E00E948E
S11301D003040F2EF4E6EF2EF12CF02DCAE0D0E04C
S11301E008E610E081E00E9490010E948801BC01B1
S11301F080E090E00E94620420E030E040E85EE3AA
S11302000E94C8040E9431049B01709369006093AA
S113021068006A307105D4F46BE081E00E94120436
S113022080E20E94D30380E20E94D30368E081E06D
S11302300E941204F8018081805D0E94D3038FED37
S11302400E94D30383E40E94D303CCCF6A50710984
S11302506A35710538F56CE081E00E94120480E291
S11302600E94D30368E081E00E9412048091680038
S113027090916900BE010E94530580E3860F0E949D
S1130280D3038091680090916900BE010E945305D8
S1130290805D0E94D3038FED0E94D30383E40E9408
S11302A0D303A0CF243631050CF49CCF68E081E061
S11302B00E9412048091680090916900B7010E9425
S11302C0530580E3860F0E94D303809168009091C8
S11302D06900BE010E94530586E2860F0E94D30383
S11302E08091680090916900BE010E945305805D71
S11302F00E94D3038FED0E94D30383E40E94D303AF
S113030071CF3E9A3F9A379A3098319A329A08952B
S1130310369A86B1349A84B125B190E0922B08952F
S113032090E08830910520F5FC01E65DFF4F0C94C8
S11303306705389839983A980895389A39983A98C8
S113034008953898399A3A980895389A399A3A9883
S11303500895389839983A9A0895389A39983A9A73
S113036008953898399A3A9A0895389A399A3A9A5F
S1130370089590E0FC01E154F109E432F10508F03C
S113038077C0EE5CFF4F0C946705413069F42AB3E3
S113039081E090E0AC0102C0440F551F6A95E2F77A
S11303A0BA01622B6ABB08952AB381E090E0AC01E4
S11303B002C0440F551F6A95E2F7BA0160956223A3
S11303C06ABB0895413069F427B381E090E0AC0141
S11303D002C0440F551F6A95E2F7BA01622B67BB4E
S11303E0089527B381E090E0AC0102C0440F551F8B
S11303F06A95E2F7BA016095622367BB08954130BC
S113040069F424B381E090E0AC0102C0440F551FAD
S11304106A95E2F7BA01622B64BB089524B381E0C4
S113042090E0AC0102C0440F551F6A95E2F7BA018F
S11304306095622364BB0895413069F421B381E07F
S113044090E0AC0102C0440F551F6A95E2F7BA016F
S1130450622B61BB089521B381E090E0AC0102C03E
S1130460440F551F6A95E2F7BA016095622361BB98
S1130470089590E0FC01E154F109E432F10508F03B
S113048077C0EA5AFF4F0C946705413069F42BB3E7
S113049081E090E0AC0102C0440F551F6A95E2F779
S11304A0BA01622B6BBB08952BB381E090E0AC01E1
S11304B002C0440F551F6A95E2F7BA0160956223A2
S11304C06BBB0895413069F428B381E090E0AC013E
S11304D002C0440F551F6A95E2F7BA01622B68BB4C
S11304E0089528B381E090E0AC0102C0440F551F89
S11304F06A95E2F7BA016095622368BB08954130BA
S113050069F425B381E090E0AC0102C0440F551FAB
S11305106A95E2F7BA01622B65BB089525B381E0C1
S113052090E0AC0102C0440F551F6A95E2F7BA018E
S11305306095622365BB0895413069F422B381E07C
S113054090E0AC0102C0440F551F6A95E2F7BA016E
S1130550622B62BB089522B381E090E0AC0102C03B
S1130560440F551F6A95E2F7BA016095622362BB96
S11305700895411129C06F7090E0FC01E154F10924
S1130580E432F10508F04AC0E658FF4F0C946705C1
S11305908BB3807F8BBB8BB3682B6BBB089588B305
S11305A0807F88BB88B3682B68BB089585B3807F40
S11305B085BB85B3682B65BB089582B3807F82BBFE
S11305C082B3682B62BB0895413041F56295607F28
S11305D090E0FC01E154F109E432F105F8F4E2564B
S11305E0FF4F0C9467058BB38F708BBB8BB3682B59
S11305F06BBB089588B38F7088BB88B3682B68BBC6
S1130600089585B38F7085BB85B3682B65BB08954A
S113061082B38F7082BB82B3682B62BB089541E0C2
S113062050E060E070E083E490E00E9439028FE9DA
S11306309FE00197F1F700C0000040E050E060E067
S113064070E083E490E00E9439028FE99FE0019713
S1130650F1F700C000000895CF93C82F682F62956A
S11306606F7070E041E050E083E490E00E94B902D2
S113067040E050E062E070E083E490E00E943902E0
S11306800E940F036C2F70E041E050E083E490E09F
S11306900E94B90240E050E062E070E083E490E040
S11306A00E9439020E940F038FEC97E00197F1F743
S11306B000C00000CF9108952FE788E391E0215016
S11306C080409040E1F700C0000041E050E064E069
S11306D070E083E490E00E94B90141E050E065E0FD
S11306E070E083E490E00E94B90141E050E066E0EC
S11306F070E083E490E00E94B90141E050E067E0DB
S113070070E083E490E00E94B90141E050E060E0D1
S113071070E083E490E00E94B90141E050E062E0BF
S113072070E083E490E00E94B90141E050E061E0B0
S113073070E083E490E00E94B90140E050E061E0A1
S113074070E083E490E00E94390282E00E942C036E
S11307508FE19EE40197F1F700C0000088E20E9457
S11307602C038FEC97E00197F1F700C000008CE0B8
S11307700E942C038FEC97E00197F1F700C0000072
S113078081E00E942C038FE19EE40197F1F700C001
S1130790000086E00E942C038FEC97E00197F1F7AC
S11307A000C000000895CF93C82F682F62956F7022
S11307B070E041E050E083E490E00E94B90241E03F
S11307C050E062E070E083E490E00E9439020E940D
S11307D00F036C2F70E041E050E083E490E00E944E
S11307E0B90241E050E062E070E083E490E00E94EE
S11307F039020E940F038FEC97E00197F1F700C0D4
S11308000000CF910895CF93DF93EC018881882372
S113081031F021960E94D30389918111FBCFDF919E
S1130820CF9108959FEF980F923070F49FEF960F39
S1130830903160F4813019F42FE7260F08C082301C
S113084031F42FEB260F03C020E801C020E8822FEB
S11308500E942C038FEC97E00197F1F700C0000091
S1130860089504D06894B1118DC0089570D088F0B3
S11308709F5790F0B92F9927B751A0F0D1F0660F88
S1130880771F881F991F1AF0BA95C9F712C0B130A3
S113089081F077D0B1E0089574C0672F782F88274E
S11308A0B85F39F0B93FCCF3869577956795B395E2
S11308B0D9F73EF490958095709561957F4F8F4F51
S11308C09F4F0895E89409C097FB3EF49095809556
S11308D0709561957F4F8F4F9F4F9923A9F0F92F02
S11308E096E9BB279395F695879577956795B79580
S11308F0F111F8CFFAF4BB0F11F460FF1BC06F5F66
S11309007F4F8F4F9F4F16C0882311F096E911C077
S1130910772321F09EE8872F762F05C0662371F098
S113092096E8862F70E060E02AF09A95660F771FAC
S1130930881FDAF7880F9695879597F9089557FDDC
S11309409058440F551F59F05F3F71F04795880F39
S113095097FB991F61F09F3F79F0879508951216D0
S113096013061406551FF2CF4695F1DF08C016167C
S113097017061806991FF1CF86957105610508942D
S11309800895E894BB2766277727CB0197F9089544
S11309900BD078C069D028F06ED018F0952309F0F8
S11309A05AC05FC01124EECFCADFA0F3959FD1F3E4
S11309B0950F50E0551F629FF001729FBB27F00D09
S11309C0B11D639FAA27F00DB11DAA1F649F66275E
S11309D0B00DA11D661F829F2227B00DA11D621FAD
S11309E0739FB00DA11D621F839FA00D611D221F67
S11309F0749F3327A00D611D231F849F600D211D4B
S1130A00822F762F6A2F11249F5750408AF0E1F0ED
S1130A1088234AF0EE0FFF1FBB1F661F771F881F36
S1130A2091505040A9F79E3F510570F014C0AACFD1
S1130A305F3FECF3983EDCF3869577956795B79521
S1130A40F795E7959F5FC1F7FE2B880F911D96954B
S1130A50879597F9089597F99F6780E870E060E0BB
S1130A6008959FEF80EC089500240A941616170643
S1130A7018060906089500240A941216130614068B
S1130A8005060895092E0394000C11F4882352F0EE
S1130A90BB0F40F4BF2B11F460FF04C06F5F7F4FA6
S1130AA08F4F9F4F089597FB072E16F4009407D09D
S1130AB077FD09D00E946D0507FC05D03EF49095A2
S1130AC081959F4F0895709561957F4F0895EE0F1E
S1130AD0FF1F0590F491E02D0994AA1BBB1B51E163
S1130AE007C0AA1FBB1FA617B70710F0A61BB70B9A
S1130AF0881F991F5A95A9F780959095BC01CD013F
S1090B000895F894FFCFF4
S10B0B0654656D70203A2000D3
S9030000FC
