:100000000C944E000C9458000C9458000C9458001A
:100010000C9458000C9458000C9458000C94580000
:100020000C9458000C9458000C9458000C945800F0
:100030000C9458000C9458000C9458000C945800E0
:100040000C9458000C9458000C9458000C945800D0
:100050000C94580066008500A400C300E100E10094
:10006000E100E100E100E100E100E100E100E10088
:10007000E100E100E100E100E100E100E100E10078
:10008000E100E100E100E100E100E100E100E10068
:10009000E100E10066008500A400C30011241FBE3A
:1000A000CFE5D8E0DEBFCDBF0E9449010C945601D8
:1000B0000C94000090E0FC01E154F109E432F105F8
:1000C00008F07FC0E65DFF4F0C945001413069F4A9
:1000D0002AB381E090E0AC0102C0440F551F6A953D
:1000E000E2F7BA01622B6ABB089541116AC02AB3D4
:1000F00081E090E0AC0102C0440F551F6A95E2F721
:10010000BA01609562236ABB0895413069F427B350
:1001100081E090E0AC0102C0440F551F6A95E2F700
:10012000BA01622B67BB089541114BC027B381E030
:1001300090E0AC0102C0440F551F6A95E2F7BA0186
:100140006095622367BB0895413069F424B381E070
:1001500090E0AC0102C0440F551F6A95E2F7BA0166
:10016000622B64BB089541112CC024B381E090E060
:10017000AC0102C0440F551F6A95E2F7BA016095C1
:10018000622364BB0895413069F421B381E090E0BB
:10019000AC0102C0440F551F6A95E2F7BA01622B09
:1001A00061BB089541110DC021B381E090E0AC0125
:1001B00002C0440F551F6A95E2F7BA0160956223A9
:1001C00061BB08950F931F93CF93DF93082FEB012B
:1001D000142F41E063E082E40E945A0083B78064F8
:1001E00083BF83B7886083BF0CBFC034D10501F1E2
:1001F00028F4209759F0289791F035C0C11581E077
:10020000D807F9F0C115D44029F12DC083B78E7FEE
:1002100083BF83B78D7F83BF83B7846083BF83B77A
:100220008E7F83BF83B7826083BF83B78B7F83BF9B
:1002300083B7816083BF83B7826083BF83B78B7FBF
:1002400083BF83B78E7F83BF83B78D7F83BF83B721
:10025000846083BF83B7816083BF83B78D7F83BF93
:1002600083B7846083BF112319F0113039F00CC0BB
:1002700083B78F7E83BF83B7806283BF83B780617C
:1002800083BF83B7806283BFDF91CF911F910F91AE
:10029000089541E060E074E080E40E94E200FFCF56
:1002A000EE0FFF1F0590F491E02D0994F894FFCF15
:00000001FF
