:100000000C9496000C94A0000C94A0000C94A000FA
:100010000C94A0000C94A0000C94A0000C94A000E0
:100020000C94A0000C94A0000C94A0000C94A000D0
:100030000C94A0000C94A0000C94A0000C94A000C0
:100040000C94A0000C94A0000C94A0000C94A000B0
:100050000C94A000D200EF000C01290145014501DC
:100060004501450145014501450145014501450160
:100070004501450145014501450145014501450150
:100080004501450145014501450145014501450140
:1000900045014501D200EF000C01290152016F0119
:1000A0008C01A901C501C501C501C501C501C50175
:1000B000C501C501C501C501C501C501C501C50110
:1000C000C501C501C501C501C501C501C501C50100
:1000D000C501C501C501C501C501C50152016F01B9
:1000E0008C01A901D401E801FC01100223022302C2
:1000F00023022302230223022302230223022302D8
:1001000023022302230223022302230223022302C7
:1001100023022302230223022302230223022302B7
:1001200023022302D401E801FC01100211241FBEA6
:10013000CFE5D8E0DEBFCDBF0E94A2000C943E0206
:100140000C94000060E081E40E94250261E081E4FB
:100150000E94310261E081E40E943502813089F41D
:100160008FE59AEE0197F1F700C0000061E081E4AD
:100170000E943502813071F760E081E40E9429021B
:10018000E9CF60E081E40E942D02E4CF90E0FC0121
:10019000E154F109E432F10508F077C0E65DFF4F64
:1001A0000C943802413069F42AB381E090E0AC014C
:1001B00002C0440F551F6A95E2F7BA01622B6ABB71
:1001C00008952AB381E090E0AC0102C0440F551FAE
:1001D0006A95E2F7BA01609562236ABB08954130DF
:1001E00069F427B381E090E0AC0102C0440F551FD1
:1001F0006A95E2F7BA01622B67BB089527B381E0E5
:1002000090E0AC0102C0440F551F6A95E2F7BA01B5
:100210006095622367BB0895413069F424B381E09F
:1002200090E0AC0102C0440F551F6A95E2F7BA0195
:10023000622B64BB089524B381E090E0AC0102C05E
:10024000440F551F6A95E2F7BA016095622364BBBB
:100250000895413069F421B381E090E0AC0102C01F
:10026000440F551F6A95E2F7BA01622B61BB0895EE
:1002700021B381E090E0AC0102C0440F551F6A95A4
:10028000E2F7BA016095622361BB089590E0FC013A
:10029000E154F109E432F10508F077C0E25BFF4F69
:1002A0000C943802413069F42BB381E090E0AC014A
:1002B00002C0440F551F6A95E2F7BA01622B6BBB6F
:1002C00008952BB381E090E0AC0102C0440F551FAC
:1002D0006A95E2F7BA01609562236BBB08954130DD
:1002E00069F428B381E090E0AC0102C0440F551FCF
:1002F0006A95E2F7BA01622B68BB089528B381E0E2
:1003000090E0AC0102C0440F551F6A95E2F7BA01B4
:100310006095622368BB0895413069F425B381E09C
:1003200090E0AC0102C0440F551F6A95E2F7BA0194
:10033000622B65BB089525B381E090E0AC0102C05B
:10034000440F551F6A95E2F7BA016095622365BBB9
:100350000895413069F422B381E090E0AC0102C01D
:10036000440F551F6A95E2F7BA01622B62BB0895EC
:1003700022B381E090E0AC0102C0440F551F6A95A2
:10038000E2F7BA016095622362BB0895962F482F69
:1003900050E0FA01E154F109E432F10508F053C0EC
:1003A000EE58FF4F0C94380229B341E050E0092E7B
:1003B00002C0440F551F0A94E2F730E0242335238E
:1003C000A90102C0559547959A95E2F7242F3BC0A5
:1003D00026B341E050E0092E02C0440F551F0A9495
:1003E000E2F730E024233523A90102C05595479553
:1003F0009A95E2F7242F27C023B341E050E0092E5D
:1004000002C0440F551F0A94E2F730E0242335233D
:10041000A90102C0559547959A95E2F7242F13C07C
:1004200020B341E050E0092E02C0440F551F0A944A
:10043000E2F730E024233523A90102C05595479502
:100440009A95E2F7242F822F089541E00E94C6007A
:10045000089541E00E944601089540E00E9446014F
:10046000089540E00E94C60008950E94C6010895C4
:10047000EE0FFF1F0590F491E02D0994F894FFCF43
:00000001FF
