:100000000C9402010C9417010C9417010C94170125
:100010000C9417010C9417010C9417010C94170100
:100020000C9417010C9417010C9417010C941701F0
:100030000C9417010C9417010C9417010C941701E0
:100040000C9417010C9417010C9417010C941701D0
:100050000C941701250142015F017C019801980170
:1000600098019801980198019801980198019801C8
:1000700098019801980198019801980198019801B8
:1000800098019801980198019801980198019801A8
:1000900098019801250142015F017C01A401A6019C
:1000A000A801AA01AB01AB01AB01AB01AB01AB01F4
:1000B000AB01AB01AB01AB01AB01AB01AB01AB01E0
:1000C000AB01AB01AB01AB01AB01AB01AB01AB01D0
:1000D000AB01AB01AB01AB01AB01AB01A401A601CC
:1000E000A801AA01B801D501F2010F022B022B02CF
:1000F0002B022B022B022B022B022B022B022B0298
:100100002B022B022B022B022B022B022B022B0287
:100110002B022B022B022B022B022B022B022B0277
:100120002B022B02B801D501F2010F02370239026E
:100130003B023D023E023E023E023E023E023E02C3
:100140003E023E023E023E023E023E023E023E02AF
:100150003E023E023E023E023E023E023E023E029F
:100160003E023E023E023E023E023E02370239029B
:100170003B023D024D026102750289029C029C0213
:100180009C029C029C029C029C029C029C029C027F
:100190009C029C029C029C029C029C029C029C026F
:1001A0009C029C029C029C029C029C029C029C025F
:1001B0009C029C024D02610275028902AA02B902E8
:1001C000C802D702E502E502E502E502E502E50222
:1001D000E502E502E502E502E502E502E502E502E7
:1001E000E502E502E502E502E502E502E502E502D7
:1001F000E502E502E502E502E502E502AA02B9022E
:10020000C802D70211241FBECFE5D8E0DEBFCDBFA4
:1002100010E0A0E6B0E0E6E2F8E002C005900D9242
:10022000A037B107D9F70E94E6020C9411040C9490
:10023000000090E0FC01E154F109E432F10508F01E
:1002400077C0E65DFF4F0C940B04413069F42AB38C
:1002500081E090E0AC0102C0440F551F6A95E2F7BF
:10026000BA01622B6ABB08952AB381E090E0AC0129
:1002700002C0440F551F6A95E2F7BA0160956223E8
:100280006ABB0895413069F427B381E090E0AC0186
:1002900002C0440F551F6A95E2F7BA01622B67BB93
:1002A000089527B381E090E0AC0102C0440F551FD0
:1002B0006A95E2F7BA016095622367BB0895413001
:1002C00069F424B381E090E0AC0102C0440F551FF3
:1002D0006A95E2F7BA01622B64BB089524B381E00A
:1002E00090E0AC0102C0440F551F6A95E2F7BA01D5
:1002F0006095622364BB0895413069F421B381E0C5
:1003000090E0AC0102C0440F551F6A95E2F7BA01B4
:10031000622B61BB089521B381E090E0AC0102C083
:10032000440F551F6A95E2F7BA016095622361BBDD
:10033000089590E0FC01E154F109E432F10558F42C
:10034000E25BFF4F0C940B046ABB089567BB0895F2
:1003500064BB089561BB089590E0FC01E154F1098C
:10036000E432F10508F077C0EE58FF4F0C940B040F
:10037000413069F42BB381E090E0AC0102C0440F3E
:10038000551F6A95E2F7BA01622B6BBB08952BB338
:1003900081E090E0AC0102C0440F551F6A95E2F77E
:1003A000BA01609562236BBB0895413069F428B3AC
:1003B00081E090E0AC0102C0440F551F6A95E2F75E
:1003C000BA01622B68BB089528B381E090E0AC01CC
:1003D00002C0440F551F6A95E2F7BA016095622387
:1003E00068BB0895413069F425B381E090E0AC0129
:1003F00002C0440F551F6A95E2F7BA01622B65BB34
:10040000089525B381E090E0AC0102C0440F551F70
:100410006A95E2F7BA016095622365BB08954130A1
:1004200069F422B381E090E0AC0102C0440F551F93
:100430006A95E2F7BA01622B62BB089522B381E0AC
:1004400090E0AC0102C0440F551F6A95E2F7BA0173
:100450006095622362BB089590E0FC01E154F109CC
:10046000E432F10558F4EA56FF4F0C940B046BBBD1
:10047000089568BB089565BB089562BB0895962FE3
:10048000482F50E0FA01E154F109E432F10508F097
:1004900053C0E654FF4F0C940B0429B341E050E0E5
:1004A000092E02C0440F551F0A94E2F730E02423BE
:1004B0003523A90102C0559547959A95E2F7242F57
:1004C0003BC026B341E050E0092E02C0440F551F47
:1004D0000A94E2F730E024233523A90102C05595A0
:1004E00047959A95E2F7242F27C023B341E050E0C7
:1004F000092E02C0440F551F0A94E2F730E024236E
:100500003523A90102C0559547959A95E2F7242F06
:1005100013C020B341E050E0092E02C0440F551F24
:100520000A94E2F730E024233523A90102C055954F
:1005300047959A95E2F7242F822F089590E0FC01C9
:10054000E154F109E432F10508F03FC0E252FF4FF7
:100550000C940B044130C9F54BB321E030E0C901E4
:10056000062E02C0880F991F0A94E2F7842B8BBBDA
:1005700002C0413051F548B321E030E0C901062EF8
:1005800002C0880F991F0A94E2F7842B88BB02C02F
:100590004130D9F445B321E030E0C901062E02C054
:1005A000880F991F0A94E2F7842B85BB02C0413063
:1005B00061F422B381E090E0AC0102C0440F551F0A
:1005C0006A95E2F7BA01622B62BB089583E40E9448
:1005D000FC020E94B90383E40E943B038F3F11F0A9
:1005E0000E94FF032FEF80E792E02150804090406F
:1005F000E1F700C00000EFCFCF93C82F41E060E0EB
:100600000E94190141E061E08C2F0E94190141E034
:1006100062E08C2F0E94190141E063E08C2F0E9460
:10062000190140E064E08C2F0E94190140E065E070
:100630008C2F0E94190140E066E08C2F0E94190166
:1006400040E067E08C2F0E94190141E064E08C2FAC
:100650000E949E0241E065E08C2F0E949E0241E0D4
:1006600066E08C2F0E949E0241E067E08C2F0E9482
:100670009E02CF910895FF920F931F93CF93DF9324
:10068000CDB7DEB760970FB6F894DEBF0FBECDBF13
:10069000082F80E1E0E6F0E0DE01119601900D9276
:1006A0008A95E1F7F12C41E060E0802F0E94AC01D7
:1006B00041E061E0802F0E94AC0141E062E0802FC8
:1006C0000E94AC0141E063E0802F0E94AC0140E059
:1006D0006F2D802F0E94AC0110E064E0610F802F2D
:1006E0000E943F0281110BC0E12FF0E084E0F89EF0
:1006F000E00DF11D1124EC0FFD1F81810BC01F5F68
:10070000143059F702C08FEF05C0F39484E0F8125B
:10071000CACFF9CF60960FB6F894DEBF0FBECDBF3B
:10072000DF91CF911F910F91FF90089541E060E01C
:1007300082E40E94AC018FE99FE00197F1F700C0CD
:10074000000040E060E082E40E94AC018FE99FE09D
:100750000197F1F700C000000895682F81E40E941E
:100760002C0240E061E082E40E94AC010E9496030A
:1007700008952FE788E391E0215080409040E1F711
:1007800000C0000061E081E40E94990141E060E066
:1007900082E40E94190141E061E082E40E941901B3
:1007A00041E062E082E40E94190140E062E082E4FC
:1007B0000E94AC0182E30E94AD038FEC97E00197A9
:1007C000F1F700C000008EE00E94AD038FEC97E0CF
:1007D0000197F1F700C0000081E00E94AD038FE1B6
:1007E0009EE40197F1F700C0000086E00E94AD038F
:1007F0008FEC97E00197F1F700C000000895682F93
:1008000081E40E942C0241E061E082E40E94AC019C
:100810000E9496030895EE0FFF1F0590F491E02DBE
:060820000994F894FFCFDB
:100826003738392F3435362A3132332D41303D2B86
:00000001FF
