:100000000C9472000C947C000C947C000C947C008A
:100010000C947C000C947C000C947C000C947C0070
:100020000C947C000C947C000C947C000C947C0060
:100030000C947C000C947C000C947C000C947C0050
:100040000C947C000C947C000C947C000C947C0040
:100050000C947C008A00A700C400E100FD00FD00B4
:10006000FD00FD00FD00FD00FD00FD00FD00FD00A8
:10007000FD00FD00FD00FD00FD00FD00FD00FD0098
:10008000FD00FD00FD00FD00FD00FD00FD00FD0088
:10009000FD00FD008A00A700C400E1000A0127015D
:1000A000440161017D017D017D017D017D017D01B5
:1000B0007D017D017D017D017D017D017D017D0150
:1000C0007D017D017D017D017D017D017D017D0140
:1000D0007D017D017D017D017D017D010A012701F9
:1000E0004401610111241FBECFE5D8E0DEBFCDBFC2
:1000F0000E947E010C94A6010C94000090E0FC018B
:10010000E154F109E432F10508F077C0E65DFF4FF4
:100110000C94A001413069F42AB381E090E0AC0175
:1001200002C0440F551F6A95E2F7BA01622B6ABB01
:1001300008952AB381E090E0AC0102C0440F551F3E
:100140006A95E2F7BA01609562236ABB089541306F
:1001500069F427B381E090E0AC0102C0440F551F61
:100160006A95E2F7BA01622B67BB089527B381E075
:1001700090E0AC0102C0440F551F6A95E2F7BA0146
:100180006095622367BB0895413069F424B381E030
:1001900090E0AC0102C0440F551F6A95E2F7BA0126
:1001A000622B64BB089524B381E090E0AC0102C0EF
:1001B000440F551F6A95E2F7BA016095622364BB4C
:1001C0000895413069F421B381E090E0AC0102C0B0
:1001D000440F551F6A95E2F7BA01622B61BB08957F
:1001E00021B381E090E0AC0102C0440F551F6A9535
:1001F000E2F7BA016095622361BB089590E0FC01CB
:10020000E154F109E432F10508F077C0E25BFF4FF9
:100210000C94A001413069F42BB381E090E0AC0173
:1002200002C0440F551F6A95E2F7BA01622B6BBBFF
:1002300008952BB381E090E0AC0102C0440F551F3C
:100240006A95E2F7BA01609562236BBB089541306D
:1002500069F428B381E090E0AC0102C0440F551F5F
:100260006A95E2F7BA01622B68BB089528B381E072
:1002700090E0AC0102C0440F551F6A95E2F7BA0145
:100280006095622368BB0895413069F425B381E02D
:1002900090E0AC0102C0440F551F6A95E2F7BA0125
:1002A000622B65BB089525B381E090E0AC0102C0EC
:1002B000440F551F6A95E2F7BA016095622365BB4A
:1002C0000895413069F422B381E090E0AC0102C0AE
:1002D000440F551F6A95E2F7BA01622B62BB08957D
:1002E00022B381E090E0AC0102C0440F551F6A9533
:1002F000E2F7BA016095622362BB089541E060E0D5
:1003000084E40E947E0041E060E084E40E94FE00FC
:100310002FEF89E698E1215080409040E1F700C03E
:10032000000040E060E084E40E94FE002FEF89E6D8
:1003300098E1215080409040E1F700C00000E3CFF9
:10034000EE0FFF1F0590F491E02D0994F894FFCF74
:00000001FF
