S01600007370692B6C63645F6D61737465722E7372656379
S11300000C94BA000C94C4000C94C4000C94C40066
S11300100C94C4000C94C4000C94C4000C94C4004C
S11300200C94C4000C94C4000C94C4000C94C4003C
S11300300C94C4000C94C4000C94C4000C94C4002C
S11300400C94C4000C94C4000C94C4000C94C4001C
S11300500C94C400D200EF000C01290145014501B4
S1130060450145014501450145014501450145015C
S1130070450145014501450145014501450145014C
S1130080450145014501450145014501450145013C
S113009045014501D200EF000C01290152016F0115
S11300A08C01A901C501C501C501C501C501C50171
S11300B0C501C501C501C501C501C501C501C5010C
S11300C0C501C501C501C501C501C501C501C501FC
S11300D0C501C501C501C501C501C50152016F01B5
S11300E08C01A901D501DC01E301EA011B021B0219
S11300F01B021B021B021B021B021B021B021B0214
S11301001B021B021B021B021B021B021B021B0203
S11301101B021B021B021B021B021B021B021B02F3
S11301201B021B02D501DC01E301EA010002070204
S11301300E0215021B021B021B021B021B021B02E6
S11301401B021B021B021B021B021B021B021B02C3
S11301501B021B021B021B021B021B021B021B02B3
S11301601B021B021B021B021B021B0200020702D2
S11301700E02150211241FBECFE5D8E0DEBFCDBFAD
S11301800E94E0020C944C030C94000090E0FC01EB
S1130190E154F109E432F10508F077C0E65DFF4F60
S11301A00C944603413069F42AB381E090E0AC0139
S11301B002C0440F551F6A95E2F7BA01622B6ABB6D
S11301C008952AB381E090E0AC0102C0440F551FAA
S11301D06A95E2F7BA01609562236ABB08954130DB
S11301E069F427B381E090E0AC0102C0440F551FCD
S11301F06A95E2F7BA01622B67BB089527B381E0E1
S113020090E0AC0102C0440F551F6A95E2F7BA01B1
S11302106095622367BB0895413069F424B381E09B
S113022090E0AC0102C0440F551F6A95E2F7BA0191
S1130230622B64BB089524B381E090E0AC0102C05A
S1130240440F551F6A95E2F7BA016095622364BBB7
S11302500895413069F421B381E090E0AC0102C01B
S1130260440F551F6A95E2F7BA01622B61BB0895EA
S113027021B381E090E0AC0102C0440F551F6A95A0
S1130280E2F7BA016095622361BB089590E0FC0136
S1130290E154F109E432F10508F077C0E25BFF4F65
S11302A00C944603413069F42BB381E090E0AC0137
S11302B002C0440F551F6A95E2F7BA01622B6BBB6B
S11302C008952BB381E090E0AC0102C0440F551FA8
S11302D06A95E2F7BA01609562236BBB08954130D9
S11302E069F428B381E090E0AC0102C0440F551FCB
S11302F06A95E2F7BA01622B68BB089528B381E0DE
S113030090E0AC0102C0440F551F6A95E2F7BA01B0
S11303106095622368BB0895413069F425B381E098
S113032090E0AC0102C0440F551F6A95E2F7BA0190
S1130330622B65BB089525B381E090E0AC0102C057
S1130340440F551F6A95E2F7BA016095622365BBB5
S11303500895413069F422B381E090E0AC0102C019
S1130360440F551F6A95E2F7BA01622B62BB0895E8
S113037022B381E090E0AC0102C0440F551F6A959E
S1130380E2F7BA016095622362BB0895411129C066
S11303906F7090E0FC01E154F109E432F10508F0DA
S11303A04AC0EE58FF4F0C9446038BB3807F8BBB3F
S11303B08BB3682B6BBB089588B3807F88BB88B3ED
S11303C0682B68BB089585B3807F85BB85B3682B94
S11303D065BB089582B3807F82BB82B3682B62BB06
S11303E00895413041F56295607F90E0FC01E1544D
S11303F0F109E432F105F8F4EA56FF4F0C94460390
S11304008BB38F708BBB8BB3682B6BBB089588B396
S11304108F7088BB88B3682B68BB089585B38F70D1
S113042085BB85B3682B65BB089582B38F7082BB8F
S113043082B3682B62BB089541E050E060E070E055
S113044083E490E00E9446018FE99FE00197F1F771
S113045000C0000040E050E060E070E083E490E021
S11304600E9446018FE99FE00197F1F700C0000068
S11304700895CF93C82F682F62956F7070E041E0A4
S113048050E083E490E00E94C60140E050E062E066
S113049070E083E490E00E9446010E941C026C2FED
S11304A070E041E050E083E490E00E94C60140E047
S11304B050E062E070E083E490E00E9446010E9414
S11304C01C028FEC97E00197F1F700C00000CF9178
S11304D008952FE788E391E0215080409040E1F7B0
S11304E000C0000041E050E064E070E083E490E08C
S11304F00E94C60041E050E065E070E083E490E0D3
S11305000E94C60041E050E066E070E083E490E0C1
S11305100E94C60041E050E067E070E083E490E0B0
S11305200E94C60041E050E060E070E083E490E0A7
S11305300E94C60041E050E062E070E083E490E095
S11305400E94C60041E050E061E070E083E490E086
S11305500E94C60040E050E061E070E083E490E077
S11305600E94460182E00E9439028FE19EE40197D5
S1130570F1F700C0000088E20E9439028FEC97E096
S11305800197F1F700C000008FE00E9439028FEC60
S113059097E00197F1F700C0000081E00E94390262
S11305A08FE19EE40197F1F700C0000086E00E940D
S11305B039028FEC97E00197F1F700C0000008952D
S11305C00E9469020E941A0381E00E9439032FEFFE
S11305D082E597E0215080409040E1F700C00000A0
S11305E086E00E9439032FEF82E597E02150804096
S11305F09040E1F700C0000085E00E9439032FEF2E
S113060082E597E0215080409040E1F700C000006F
S113061087E00E9439032FEF82E597E02150804064
S11306209040E1F700C0000083E00E94390380E0BD
S113063090E0089541E064E082E40E94C60041E055
S113064065E082E40E94C60040E066E082E40E9425
S1130650C60041E067E082E40E94C6006C9A70988C
S11306606998689A41E064E082E40E9446016E9AC7
S11306700895CF93C82F40E064E082E40E944601CD
S1130680CFB9779BFECF8FB1CF910895EE0FFF1FA7
S10F06900590F491E02D0994F894FFCF3C
S9030000FC
