S01500006164632B6C6D3335282D7665292E7372656322
S11300000C94BA000C94D7000C94D7000C94D7002D
S11300100C94D7000C94D7000C94D7000C94D70000
S11300200C94D7000C94D7000C94D7000C94D700F0
S11300300C94D7000C94D7000C94D7000C94D700E0
S11300400C94D7000C94D7000C94D7000C94D700D0
S11300500C94D7001E023B025802750291029102D1
S113006091029102910291029102910291029102F4
S113007091029102910291029102910291029102E4
S113008091029102910291029102910291029102D4
S1130090910291021E023B02580275029E02BB02AB
S11300A0D802F50211031103110311031103110303
S11300B0110311031103110311031103110311039C
S11300C0110311031103110311031103110311038C
S11300D01103110311031103110311039E02BB0247
S11300E0D802F502210328032F03360367036703AD
S11300F067036703670367036703670367036703AC
S1130100670367036703670367036703670367039B
S1130110670367036703670367036703670367038B
S113012067036703210328032F0336034C03530398
S11301305A0361036703670367036703670367037E
S1130140670367036703670367036703670367035B
S1130150670367036703670367036703670367034B
S11301606703670367036703670367034C0353036A
S11301705A03610311241FBECFE5D8E0DEBFCDBF13
S113018010E0A0E6B0E0ECECFBE002C005900D92BC
S1130190A836B107D9F720E0A8E6B0E001C01D9267
S11301A0AC36B207E1F70E94D9000C94E4050C9434
S11301B000000E94B5030E940302389839983A98C7
S11301C03B983C9A80E690E00E945C0408EE13E0C1
S11301D0CAE0D0E00F2EFAE6EF2EF0E0FF2EF02D6D
S11301E00F2EF4E6CF2ED12CF02D0E940A02BC0172
S11301F080E090E00E94B60420E030E040E250E469
S11302000E941C050E948A04709369006093680030
S1130210683E23E0720708F4A7C09B01285E3340C0
S1130220ADECBCEC0E94C105969587959695879593
S1130230969587959C0190936B0080936A008A3011
S113024091050CF567E081E00E946B0480E20E9456
S11302502C046BE081E00E946B0480E20E942C0479
S113026080E20E942C0468E081E00E946B04F701A4
S11302708081805D0E942C048FED0E942C0483E415
S11302800E942C04B2CF0A978A35910588F567E05D
S113029081E00E946B0480E20E942C046CE081E007
S11302A00E946B0480E20E942C0468E081E00E94BA
S11302B06B0480916A0090916B00BE010E94A705B7
S11302C0CB01BE010E94A705805D0E942C04809191
S11302D06A0090916B00BE010E94A705805D0E9498
S11302E02C048FED0E942C0483E40E942C047DCF07
S11302F0243631050CF479CF67E081E00E946B0469
S113030080E20E942C0468E081E00E946B048091EA
S11303106A0090916B00B6010E94A705CB01BE0153
S11303200E94A705805D0E942C0480916A00909130
S11303306B00BE010E94A705CB01BE010E94A70568
S1130340805D0E942C0480916A0090916B00BE0134
S11303500E94A705805D0E942C048FED0E942C044E
S113036083E40E942C0441CF9801261B370BADEC8B
S1130370BCEC0E94C10596958795969587959695B0
S1130380879590936B0080936A008A3091059CF462
S113039067E081E00E946B048DE20E942C04F70167
S11303A08081805D0E942C048FED0E942C0483E4E4
S11303B00E942C041ACF0A978A35910508F015CFAC
S11303C067E081E00E946B048DE20E942C0480911E
S11303D06A0090916B00BE010E94A70580E3860F1E
S11303E00E942C0480916A0090916B00BE010E94CF
S11303F0A705805D0E942C048FED0E942C0483E4E9
S11304000E942C04F2CE3E9A3F9A379A3098319A41
S1130410329A0895369A86B1349A84B125B190E01F
S1130420922B089590E0FC01E154F109E432F105C6
S113043008F077C0E65DFF4F0C94BB05413069F4CA
S11304402AB381E090E0AC0102C0440F551F6A95C5
S1130450E2F7BA01622B6ABB08952AB381E090E007
S1130460AC0102C0440F551F6A95E2F7BA016095CA
S113047062236ABB0895413069F427B381E090E0B8
S1130480AC0102C0440F551F6A95E2F7BA01622B12
S113049067BB089527B381E090E0AC0102C0440F2C
S11304A0551F6A95E2F7BA016095622367BB089508
S11304B0413069F424B381E090E0AC0102C0440F00
S11304C0551F6A95E2F7BA01622B64BB089524B301
S11304D081E090E0AC0102C0440F551F6A95E2F739
S11304E0BA016095622364BB0895413069F421B375
S11304F081E090E0AC0102C0440F551F6A95E2F719
S1130500BA01622B61BB089521B381E090E0AC0194
S113051002C0440F551F6A95E2F7BA016095622341
S113052061BB089590E0FC01E154F109E432F10566
S113053008F077C0E25BFF4F0C94BB05413069F4CF
S11305402BB381E090E0AC0102C0440F551F6A95C3
S1130550E2F7BA01622B6BBB08952BB381E090E004
S1130560AC0102C0440F551F6A95E2F7BA016095C9
S113057062236BBB0895413069F428B381E090E0B5
S1130580AC0102C0440F551F6A95E2F7BA01622B11
S113059068BB089528B381E090E0AC0102C0440F29
S11305A0551F6A95E2F7BA016095622368BB089506
S11305B0413069F425B381E090E0AC0102C0440FFE
S11305C0551F6A95E2F7BA01622B65BB089525B3FE
S11305D081E090E0AC0102C0440F551F6A95E2F738
S11305E0BA016095622365BB0895413069F422B372
S11305F081E090E0AC0102C0440F551F6A95E2F718
S1130600BA01622B62BB089522B381E090E0AC0191
S113061002C0440F551F6A95E2F7BA016095622340
S113062062BB0895411129C06F7090E0FC01E15450
S1130630F109E432F10508F04AC0EE58FF4F0C947A
S1130640BB058BB3807F8BBB8BB3682B6BBB0895CF
S113065088B3807F88BB88B3682B68BB089585B353
S1130660807F85BB85B3682B65BB089582B3807F8B
S113067082BB82B3682B62BB0895413041F5629519
S1130680607F90E0FC01E154F109E432F105F8F4F3
S1130690EA56FF4F0C94BB058BB38F708BBB8BB3A7
S11306A0682B6BBB089588B38F7088BB88B3682BA5
S11306B068BB089585B38F7085BB85B3682B65BB14
S11306C0089582B38F7082BB82B3682B62BB089596
S11306D041E050E060E070E083E490E00E94920228
S11306E08FE99FE00197F1F700C0000040E050E07F
S11306F060E070E083E490E00E9492028FE99FE062
S11307000197F1F700C000000895CF93C82F682F18
S113071062956F7070E041E050E083E490E00E94E5
S1130720120340E050E062E070E083E490E00E9455
S113073092020E9468036C2F70E041E050E083E471
S113074090E00E94120340E050E062E070E083E435
S113075090E00E9492020E9468038FEC97E0019758
S1130760F1F700C00000CF9108952FE788E391E0EE
S1130770215080409040E1F700C0000041E050E08B
S113078064E070E083E490E00E94120241E050E0F3
S113079065E070E083E490E00E94120241E050E0E2
S11307A066E070E083E490E00E94120241E050E0D1
S11307B067E070E083E490E00E94120241E050E0C0
S11307C060E070E083E490E00E94120241E050E0B7
S11307D062E070E083E490E00E94120241E050E0A5
S11307E061E070E083E490E00E94120240E050E097
S11307F061E070E083E490E00E94920282E00E9453
S113080085038FE19EE40197F1F700C0000088E2C0
S11308100E9485038FEC97E00197F1F700C0000078
S11308208CE00E9485038FEC97E00197F1F700C0FC
S1130830000081E00E9485038FE19EE40197F1F7B7
S113084000C0000086E00E9485038FEC97E00197CA
S1130850F1F700C000000895CF93C82F682F629568
S11308606F7070E041E050E083E490E00E94120376
S113087041E050E062E070E083E490E00E94920284
S11308800E9468036C2F70E041E050E083E490E044
S11308900E94120341E050E062E070E083E490E0E3
S11308A00E9492020E9468038FEC97E00197F1F78F
S11308B000C00000CF910895CF93DF93EC018881AD
S11308C0882331F021960E942C0489918111FBCF59
S11308D0DF91CF9108959FEF980F923070F49FEFBE
S11308E0960F903160F4813019F42FE7260F08C079
S11308F0823031F42FEB260F03C020E801C020E83A
S1130900822F0E9485038FEC97E00197F1F700C0D6
S11309100000089570D088F09F5790F0B92F992760
S1130920B751A0F0D1F0660F771F881F991F1AF0F6
S1130930BA95C9F712C0B13081F077D0B1E008950B
S113094074C0672F782F8827B85F39F0B93FCCF38C
S1130950869577956795B395D9F73EF490958095EC
S1130960709561957F4F8F4F9F4F0895E89409C00C
S113097097FB3EF490958095709561957F4F8F4FCE
S11309809F4F9923A9F0F92F96E9BB279395F695E4
S1130990879577956795B795F111F8CFFAF4BB0F62
S11309A011F460FF1BC06F5F7F4F8F4F9F4F16C0C6
S11309B0882311F096E911C0772321F09EE8872F50
S11309C0762F05C0662371F096E8862F70E060E00C
S11309D02AF09A95660F771F881FDAF7880F969585
S11309E0879597F9089557FD9058440F551F59F06E
S11309F05F3F71F04795880F97FB991F61F09F3F08
S1130A0079F087950895121613061406551FF2CF30
S1130A104695F1DF08C0161617061806991FF1CF80
S1130A2086957105610508940895E894BB276627A7
S1130A307727CB0197F908950BD078C069D028F0B7
S1130A406ED018F0952309F05AC05FC01124EECF80
S1130A50CADFA0F3959FD1F3950F50E0551F629F15
S1130A60F001729FBB27F00DB11D639FAA27F00D03
S1130A70B11DAA1F649F6627B00DA11D661F829F2A
S1130A802227B00DA11D621F739FB00DA11D621F0F
S1130A90839FA00D611D221F749F3327A00D611D2C
S1130AA0231F849F600D211D822F762F6A2F11240E
S1130AB09F5750408AF0E1F088234AF0EE0FFF1F61
S1130AC0BB1F661F771F881F91505040A9F79E3F98
S1130AD0510570F014C0AACF5F3FECF3983EDCF3ED
S1130AE0869577956795B795F795E7959F5FC1F7D5
S1130AF0FE2B880F911D9695879597F9089597F980
S1130B009F6780E870E060E008959FEF80EC0895AF
S1130B1000240A94161617061806090608950024D8
S1130B200A9412161306140605060895092E039452
S1130B30000C11F4882352F0BB0F40F4BF2B11F4C6
S1130B4060FF04C06F5F7F4F8F4F9F4F089597FBE7
S1130B50072E16F4009407D077FD09D00E94D00523
S1130B6007FC05D03EF4909581959F4F08957095AC
S1130B7061957F4F0895EE0FFF1F0590F491E02DCE
S1130B800994A29FB001B39FC001A39F700D811D62
S1130B901124911DB29F700D811D1124911D089582
S1130BA0AA1BBB1B51E107C0AA1FBB1FA617B7078F
S1130BB010F0A61BB70B881F991F5A95A9F78095AB
S10F0BC09095BC01CD010895F894FFCF7E
S10B0BCC54656D70203A20000D
S9030000FC
