:100000000C947C000C9486000C9486000C94860062
:100010000C9486000C9486000C9486000C94860048
:100020000C9486000C9486000C9486000C94860038
:100030000C9486000C9486000C9486000C94860028
:100040000C9486000C9486000C9486000C94860018
:100050000C94860093009500970099009A009A00EE
:100060009A009A009A009A009A009A009A009A00C0
:100070009A009A009A009A009A009A009A009A00B0
:100080009A009A009A009A009A009A009A009A00A0
:100090009A009A009300950097009900A600A80086
:1000A000AA00AC00AD00AD00AD00AD00AD00AD00EC
:1000B000AD00AD00AD00AD00AD00AD00AD00AD00D8
:1000C000AD00AD00AD00AD00AD00AD00AD00AD00C8
:1000D000AD00AD00AD00AD00AD00AD00A600A800C4
:1000E000AA00AC00BC00C000C400C800CC00D00016
:1000F000D400D800DC00E00011241FBECFE5D8E01A
:10010000DEBFCDBF0E94E4000C940F010C940000F0
:1001100090E0FC01E154F109E432F10558F4E65DA8
:10012000FF4F0C9409016ABB089567BB089564BB37
:10013000089561BB089590E0FC01E154F109E432B7
:10014000F10558F4E25BFF4F0C9409016BBB089575
:1001500068BB089565BB089562BB08956FEF0E9468
:1001600088000895462F50E04A30510560F5FA01A5
:10017000EE58FF4F0C9409016FE30E949B00089515
:1001800066E00E949B0008956BE50E949B00089525
:100190006FE40E949B00089566E60E949B0008950C
:1001A0006DE60E949B0008956DE70E949B000895F4
:1001B00067E40E949B0008956FE70E949B000895EA
:1001C0006FE60E949B00089581E40E94AE0060E00B
:1001D00081E40E94B2002FEF89E698E1215080402F
:1001E0009040E1F700C00000C1E0D0E001C0CD2F99
:1001F0006C2F81E40E94B2002FEF89E698E1215034
:1002000080409040E1F700C00000CF5FCA3078F72F
:10021000EFCFEE0FFF1F0590F491E02D0994F894B5
:02022000FFCF0E
:00000001FF
