:100000000C94C2000C94DF000C94DF000C94DF0011
:100010000C94DF000C94DF000C94DF000C94DF00E4
:100020000C94DF000C94DF000C94DF000C94DF00D4
:100030000C94DF000C94DF000C94DF000C94DF00C4
:100040000C94DF000C94DF000C94DF000C94DF00B4
:100050000C94DF00FF01030207020B020F021302E0
:1000600017021B022B024802650282029E029E02B8
:100070009E029E029E029E029E029E029E029E0280
:100080009E029E029E029E029E029E029E029E0270
:100090009E029E029E029E029E029E029E029E0260
:1000A0009E029E022B02480265028202AB02C80237
:1000B000E50202031E031E031E031E031E031E038E
:1000C0001E031E031E031E031E031E031E031E0328
:1000D0001E031E031E031E031E031E031E031E0318
:1000E0001E031E031E031E031E031E03AB02C802D3
:1000F000E50202032E0335033C0343037403740338
:100100007403740374037403740374037403740337
:100110007403740374037403740374037403740327
:100120007403740374037403740374037403740317
:10013000740374032E0335033C0343035903600324
:1001400067036E037403740374037403740374030A
:1001500074037403740374037403740374037403E7
:1001600074037403740374037403740374037403D7
:1001700074037403740374037403740359036003F6
:1001800067036E0311241FBECFE5D8E0DEBFCDBFED
:1001900010E0A0E6B0E0E6E9FBE002C005900D92B9
:1001A000A037B107D9F720E0A0E7B0E001C01D9269
:1001B000A237B207E1F70E94E1000C94C9050C9444
:1001C00000000E94C2030E94E80180E690E00E94C5
:1001D000690480E00E94F6010E94EE01BC0180E00B
:1001E00090E00E94C30426E636E646EE5EE30E94F7
:1001F00029050E9497049B01709371006093700021
:100200006A307105A0F56FE081E00E94780480E219
:100210000E94390480E20E9439046CE081E00E946F
:10022000780440917000509171009A01ADECBCECE3
:100230000E94BA0596958795969587959695879588
:100240009C01220F331F880F991F880F991F880F59
:10025000991F820F931F9A01281B390BC901805DDA
:100260000E9439048CE690E00E946904B2CF6A5083
:1002700071096A35710508F042C060E181E00E94B1
:10028000780480E20E9439046CE081E00E947804E6
:100290002091700030917100ADECBCEC0E94BA0569
:1002A000969587959695879596958795805D0E94FA
:1002B000390440917000509171009A01ADECBCEC92
:1002C0000E94BA05969587959695879596958795F8
:1002D0009C01220F331F880F991F880F991F880FC9
:1002E000991F820F931F9A01281B390BC901805D4A
:1002F0000E9439048CE690E00E9469046ACF24369B
:10030000310508F466CF6CE081E00E94780420910A
:100310007000309171003695279536952795ABE79B
:10032000B4E10E94BA0596958795805D0E943904D4
:100330002091700030917100ADECBCEC0E94BA05C8
:10034000AC015695479556954795569547959A0110
:100350000E94BA0596958795969587959695879567
:100360009C01220F331F880F991F880F991F880F38
:10037000991F820F931F9A01281B390BC901805DB9
:100380000E94390440917000509171009A01ADECC7
:10039000BCEC0E94BA05969587959695879596959B
:1003A00087959C01220F331F880F991F880F991F73
:1003B000880F991F820F931F9A01281B390BC901BF
:1003C000805D0E9439048CE690E00E94690401CFB0
:1003D0003E9A379A3098319A329A0895369A86B171
:1003E000349A84B125B190E0922B089590E0883042
:1003F000910520F5FC01E65DFF4F0C94B40538989B
:1004000039983A980895389A39983A9808953898CA
:10041000399A3A980895389A399A3A9808953898B6
:1004200039983A9A0895389A39983A9A08953898A6
:10043000399A3A9A0895389A399A3A9A089590E0F2
:10044000FC01E154F109E432F10508F077C0EE5CFB
:10045000FF4F0C94B405413069F42AB381E090E079
:10046000AC0102C0440F551F6A95E2F7BA01622B36
:100470006ABB08952AB381E090E0AC0102C0440F4A
:10048000551F6A95E2F7BA01609562236ABB089529
:10049000413069F427B381E090E0AC0102C0440F21
:1004A000551F6A95E2F7BA01622B67BB089527B31F
:1004B00081E090E0AC0102C0440F551F6A95E2F75D
:1004C000BA016095622367BB0895413069F424B393
:1004D00081E090E0AC0102C0440F551F6A95E2F73D
:1004E000BA01622B64BB089524B381E090E0AC01B3
:1004F00002C0440F551F6A95E2F7BA016095622366
:1005000064BB0895413069F421B381E090E0AC010F
:1005100002C0440F551F6A95E2F7BA01622B61BB16
:10052000089521B381E090E0AC0102C0440F551F53
:100530006A95E2F7BA016095622361BB089590E085
:10054000FC01E154F109E432F10508F077C0EA5A00
:10055000FF4F0C94B405413069F42BB381E090E077
:10056000AC0102C0440F551F6A95E2F7BA01622B35
:100570006BBB08952BB381E090E0AC0102C0440F47
:10058000551F6A95E2F7BA01609562236BBB089527
:10059000413069F428B381E090E0AC0102C0440F1F
:1005A000551F6A95E2F7BA01622B68BB089528B31C
:1005B00081E090E0AC0102C0440F551F6A95E2F75C
:1005C000BA016095622368BB0895413069F425B390
:1005D00081E090E0AC0102C0440F551F6A95E2F73C
:1005E000BA01622B65BB089525B381E090E0AC01B0
:1005F00002C0440F551F6A95E2F7BA016095622365
:1006000065BB0895413069F422B381E090E0AC010C
:1006100002C0440F551F6A95E2F7BA01622B62BB14
:10062000089522B381E090E0AC0102C0440F551F51
:100630006A95E2F7BA016095622362BB08954111A1
:1006400029C06F7090E0FC01E154F109E432F1053A
:1006500008F04AC0E658FF4F0C94B4058BB3807F76
:100660008BBB8BB3682B6BBB089588B3807F88BB33
:1006700088B3682B68BB089585B3807F85BB85B33D
:10068000682B65BB089582B3807F82BB82B3682BE1
:1006900062BB0895413041F56295607F90E0FC01B6
:1006A000E154F109E432F105F8F4E256FF4F0C94FD
:1006B000B4058BB38F708BBB8BB3682B6BBB08956A
:1006C00088B38F7088BB88B3682B68BB089585B3E7
:1006D0008F7085BB85B3682B65BB089582B38F701F
:1006E00082BB82B3682B62BB089541E050E060E0BA
:1006F00070E084E490E00E949F028FE99FE0019700
:10070000F1F700C0000040E050E060E070E084E4F9
:1007100090E00E949F028FE99FE00197F1F700C0EF
:1007200000000895CF93C82F682F62956F7070E016
:1007300041E050E083E490E00E941F0340E050E07D
:1007400062E070E084E490E00E949F020E947503E2
:100750006C2F70E041E050E083E490E00E941F03C2
:1007600040E050E062E070E084E490E00E949F028C
:100770000E9475038FEC97E00197F1F700C000002D
:10078000CF9108952FE788E391E021508040904079
:10079000E1F700C0000041E050E064E070E083E475
:1007A00090E00E941F0241E050E065E070E083E4C9
:1007B00090E00E941F0241E050E066E070E083E4B8
:1007C00090E00E941F0241E050E067E070E083E4A7
:1007D00090E00E941F0241E050E060E070E084E49D
:1007E00090E00E941F0241E050E062E070E084E48B
:1007F00090E00E941F0241E050E061E070E084E47C
:1008000090E00E941F0240E050E061E070E084E46C
:1008100090E00E949F0282E00E9492038FE19EE49A
:100820000197F1F700C0000088E20E9492038FEC6C
:1008300097E00197F1F700C000008CE00E9492035E
:100840008FEC97E00197F1F700C0000081E00E9473
:1008500092038FE19EE40197F1F700C0000086E06B
:100860000E9492038FEC97E00197F1F700C000001F
:100870000895CF93C82F682F62956F7070E041E0A4
:1008800050E083E490E00E941F0341E050E062E00A
:1008900070E084E490E00E949F020E9475036C2F38
:1008A00070E041E050E083E490E00E941F0341E0EB
:1008B00050E062E070E084E490E00E949F020E94B9
:1008C00075038FEC97E00197F1F700C00000CF911E
:1008D0000895CF93DF93EC018881882331F021962E
:1008E0000E94390489918111FBCFDF91CF91089546
:1008F0009FEF980F923070F49FEF960F903160F455
:10090000813019F42FE7260F08C0823031F42FEB25
:10091000260F03C020E801C020E8822F0E94920326
:100920008FEC97E00197F1F700C00000089570D0B8
:1009300088F09F5790F0B92F9927B751A0F0D1F0C8
:10094000660F771F881F991F1AF0BA95C9F712C052
:10095000B13081F077D0B1E0089574C0672F782F5F
:100960008827B85F39F0B93FCCF3869577956795BE
:10097000B395D9F73EF490958095709561957F4F2A
:100980008F4F9F4F0895E89409C097FB3EF49095D0
:100990008095709561957F4F8F4F9F4F9923A9F058
:1009A000F92F96E9BB279395F695879577956795E7
:1009B000B795F111F8CFFAF4BB0F11F460FF1BC02B
:1009C0006F5F7F4F8F4F9F4F16C0882311F096E9BE
:1009D00011C0772321F09EE8872F762F05C066236C
:1009E00071F096E8862F70E060E02AF09A95660F25
:1009F000771F881FDAF7880F9695879597F90895DE
:100A000057FD9058440F551F59F05F3F71F04795BF
:100A1000880F97FB991F61F09F3F79F087950895A4
:100A2000121613061406551FF2CF4695F1DF08C0C3
:100A3000161617061806991FF1CF869571056105E0
:100A400008940895E894BB2766277727CB0197F988
:100A500008950BD078C069D028F06ED018F0952397
:100A600009F05AC05FC01124EECFCADFA0F3959FF2
:100A7000D1F3950F50E0551F629FF001729FBB2785
:100A8000F00DB11D639FAA27F00DB11DAA1F649F31
:100A90006627B00DA11D661F829F2227B00DA11DE4
:100AA000621F739FB00DA11D621F839FA00D611D6A
:100AB000221F749F3327A00D611D231F849F600D8B
:100AC000211D822F762F6A2F11249F5750408AF0C4
:100AD000E1F088234AF0EE0FFF1FBB1F661F771F50
:100AE000881F91505040A9F79E3F510570F014C0E7
:100AF000AACF5F3FECF3983EDCF386957795679538
:100B0000B795F795E7959F5FC1F7FE2B880F911D6D
:100B10009695879597F9089597F99F6780E870E013
:100B200060E008959FEF80EC089500240A94161663
:100B3000170618060906089500240A9412161306CB
:100B4000140605060895092E0394000C11F4882359
:100B500052F0BB0F40F4BF2B11F460FF04C06F5F75
:100B60007F4F8F4F9F4F0895EE0FFF1F0590F49119
:100B7000E02D0994A29FB001B39FC001A39F700D07
:100B8000811D1124911DB29F700D811D1124911D95
:060B90000895F894FFCF68
:100B960044697374616E6365203A20006D6D0000D0
:00000001FF
